{
  "contractName": "Plasticbottle",
  "abi": [
    {
      "anonymous": false,
      "inputs": [
        {
          "indexed": true,
          "internalType": "uint256",
          "name": "_bottleID",
          "type": "uint256"
        }
      ],
      "name": "registeredBottleEvent",
      "type": "event"
    },
    {
      "constant": true,
      "inputs": [
        {
          "internalType": "uint256",
          "name": "",
          "type": "uint256"
        }
      ],
      "name": "BottleArray",
      "outputs": [
        {
          "internalType": "string",
          "name": "qrCode",
          "type": "string"
        },
        {
          "internalType": "string",
          "name": "title",
          "type": "string"
        },
        {
          "internalType": "string",
          "name": "status",
          "type": "string"
        },
        {
          "internalType": "uint256",
          "name": "bottleSize",
          "type": "uint256"
        },
        {
          "internalType": "string",
          "name": "sizeUnit",
          "type": "string"
        },
        {
          "internalType": "address",
          "name": "user",
          "type": "address"
        }
      ],
      "payable": false,
      "stateMutability": "view",
      "type": "function"
    },
    {
      "constant": false,
      "inputs": [
        {
          "internalType": "string",
          "name": "_qrCode",
          "type": "string"
        },
        {
          "internalType": "string",
          "name": "_title",
          "type": "string"
        },
        {
          "internalType": "string",
          "name": "_status",
          "type": "string"
        },
        {
          "internalType": "uint256",
          "name": "_bottleSize",
          "type": "uint256"
        },
        {
          "internalType": "string",
          "name": "_sizeUnit",
          "type": "string"
        }
      ],
      "name": "registerBottle",
      "outputs": [
        {
          "internalType": "uint256",
          "name": "",
          "type": "uint256"
        }
      ],
      "payable": false,
      "stateMutability": "nonpayable",
      "type": "function"
    },
    {
      "constant": true,
      "inputs": [],
      "name": "numberofBottles",
      "outputs": [
        {
          "internalType": "uint256",
          "name": "",
          "type": "uint256"
        }
      ],
      "payable": false,
      "stateMutability": "view",
      "type": "function"
    }
  ],
  "bytecode": "0x608060405234801561001057600080fd5b50610a5b806100206000396000f3fe608060405234801561001057600080fd5b50600436106100415760003560e01c806325fed58f146100465780635ccde69a146101dc5780638b8a2b6414610401575b600080fd5b6101c6600480360360a081101561005c57600080fd5b810190808035906020019064010000000081111561007957600080fd5b82018360208201111561008b57600080fd5b803590602001918460018302840111640100000000831117156100ad57600080fd5b9091929391929390803590602001906401000000008111156100ce57600080fd5b8201836020820111156100e057600080fd5b8035906020019184600183028401116401000000008311171561010257600080fd5b90919293919293908035906020019064010000000081111561012357600080fd5b82018360208201111561013557600080fd5b8035906020019184600183028401116401000000008311171561015757600080fd5b9091929391929390803590602001909291908035906020019064010000000081111561018257600080fd5b82018360208201111561019457600080fd5b803590602001918460018302840111640100000000831117156101b657600080fd5b909192939192939050505061041f565b6040518082815260200191505060405180910390f35b610208600480360360208110156101f257600080fd5b81019080803590602001909291905050506106ac565b60405180806020018060200180602001878152602001806020018673ffffffffffffffffffffffffffffffffffffffff1673ffffffffffffffffffffffffffffffffffffffff16815260200185810385528b818151815260200191508051906020019080838360005b8381101561028c578082015181840152602081019050610271565b50505050905090810190601f1680156102b95780820380516001836020036101000a031916815260200191505b5085810384528a818151815260200191508051906020019080838360005b838110156102f25780820151818401526020810190506102d7565b50505050905090810190601f16801561031f5780820380516001836020036101000a031916815260200191505b50858103835289818151815260200191508051906020019080838360005b8381101561035857808201518184015260208101905061033d565b50505050905090810190601f1680156103855780820380516001836020036101000a031916815260200191505b50858103825287818151815260200191508051906020019080838360005b838110156103be5780820151818401526020810190506103a3565b50505050905090810190601f1680156103eb5780820380516001836020036101000a031916815260200191505b509a505050505050505050505060405180910390f35b610409610975565b6040518082815260200191505060405180910390f35b600080600160006040518060c001604052808e8e8080601f016020809104026020016040519081016040528093929190818152602001838380828437600081840152601f19601f8201169050808301925050505050505081526020018c8c8080601f016020809104026020016040519081016040528093929190818152602001838380828437600081840152601f19601f8201169050808301925050505050505081526020018a8a8080601f016020809104026020016040519081016040528093929190818152602001838380828437600081840152601f19601f82011690508083019250505050505050815260200188815260200187878080601f016020809104026020016040519081016040528093929190818152602001838380828437600081840152601f19601f8201169050808301925050505050505081526020013373ffffffffffffffffffffffffffffffffffffffff168152509080600181540180825580915050906001820390600052602060002090600602016000909192909190915060008201518160000190805190602001906105c0929190610981565b5060208201518160010190805190602001906105dd929190610981565b5060408201518160020190805190602001906105fa929190610981565b50606082015181600301556080820151816004019080519060200190610621929190610981565b5060a08201518160050160006101000a81548173ffffffffffffffffffffffffffffffffffffffff021916908373ffffffffffffffffffffffffffffffffffffffff1602179055505050039050807f75d2ccd6a7b9b0018d80925d02d7e6f130e436bebc7f30e3c18508af02f7605160405160405180910390a2809150509998505050505050505050565b600081815481106106b957fe5b9060005260206000209060060201600091509050806000018054600181600116156101000203166002900480601f0160208091040260200160405190810160405280929190818152602001828054600181600116156101000203166002900480156107655780601f1061073a57610100808354040283529160200191610765565b820191906000526020600020905b81548152906001019060200180831161074857829003601f168201915b505050505090806001018054600181600116156101000203166002900480601f0160208091040260200160405190810160405280929190818152602001828054600181600116156101000203166002900480156108035780601f106107d857610100808354040283529160200191610803565b820191906000526020600020905b8154815290600101906020018083116107e657829003601f168201915b505050505090806002018054600181600116156101000203166002900480601f0160208091040260200160405190810160405280929190818152602001828054600181600116156101000203166002900480156108a15780601f10610876576101008083540402835291602001916108a1565b820191906000526020600020905b81548152906001019060200180831161088457829003601f168201915b505050505090806003015490806004018054600181600116156101000203166002900480601f0160208091040260200160405190810160405280929190818152602001828054600181600116156101000203166002900480156109455780601f1061091a57610100808354040283529160200191610945565b820191906000526020600020905b81548152906001019060200180831161092857829003601f168201915b5050505050908060050160009054906101000a900473ffffffffffffffffffffffffffffffffffffffff16905086565b60008080549050905090565b828054600181600116156101000203166002900490600052602060002090601f016020900481019282601f106109c257805160ff19168380011785556109f0565b828001600101855582156109f0579182015b828111156109ef5782518255916020019190600101906109d4565b5b5090506109fd9190610a01565b5090565b610a2391905b80821115610a1f576000816000905550600101610a07565b5090565b9056fea265627a7a72315820be209f4a9b5bdc09533f99727469efa35fb11e6d2884668c35916f6238023d2064736f6c63430005100032",
  "source": "pragma solidity ^0.5.0;\r\n\r\ncontract Plasticbottle{\r\n\r\n    //Creating the reference data for bottle upload\r\n    struct Bottle {\r\n        string qrCode;\r\n        string title;\r\n        string status;\r\n        uint bottleSize;\r\n        string sizeUnit;\r\n        address user;\r\n    }\r\n   \r\n   //Bottle event indexed by ID\r\n    event registeredBottleEvent (\r\n        uint indexed _bottleID\r\n   );\r\n\r\n    //Array of all bottles produced by manufacturers\r\n    Bottle[] public BottleArray;\r\n\r\n    //Registering a bottle instance\r\n    function registerBottle(string calldata _qrCode, string calldata _title, string calldata _status,  uint _bottleSize, string calldata _sizeUnit)\r\n    external returns(uint){\r\n        uint index = BottleArray.push(Bottle(_qrCode, _title, _status, _bottleSize, _sizeUnit, msg.sender))-1;\r\n\r\n        \r\n        // trigger registeredBottle event\r\n       emit registeredBottleEvent(index);\r\n\r\n        return index;\r\n    }\r\n\r\n\r\n    //Checks the number of bottles in the BottleArray\r\n    function numberofBottles() public view returns (uint){\r\n        return BottleArray.length;\r\n    }\r\n}",
  "sourcePath": "C:\\Users\\CHBRUF001\\Lorax-System\\contracts\\Bottle.sol",
  "compiler": {
    "name": "solc",
    "version": "0.5.16+commit.9c3226ce.Emscripten.clang"
  },
  "schemaVersion": "3.4.3",
  "updatedAt": "2021-10-15T10:31:45.659Z",
  "networkType": "ethereum",
  "devdoc": {
    "methods": {}
  },
  "userdoc": {
    "methods": {}
  }
}