{
  "contractName": "Plasticbottle",
  "abi": [
    {
      "anonymous": false,
      "inputs": [
        {
          "indexed": true,
          "internalType": "uint256",
          "name": "_bottleID",
          "type": "uint256"
        }
      ],
      "name": "registeredBottleEvent",
      "type": "event"
    },
    {
      "constant": true,
      "inputs": [
        {
          "internalType": "uint256",
          "name": "",
          "type": "uint256"
        }
      ],
      "name": "BottleArray",
      "outputs": [
        {
          "internalType": "string",
          "name": "qrcode",
          "type": "string"
        },
        {
          "internalType": "string",
          "name": "title",
          "type": "string"
        },
        {
          "internalType": "uint256",
          "name": "bottleSize",
          "type": "uint256"
        },
        {
          "internalType": "string",
          "name": "sizeUnit",
          "type": "string"
        }
      ],
      "payable": false,
      "stateMutability": "view",
      "type": "function"
    },
    {
      "constant": false,
      "inputs": [
        {
          "internalType": "string",
          "name": "_qrcode",
          "type": "string"
        },
        {
          "internalType": "string",
          "name": "_title",
          "type": "string"
        },
        {
          "internalType": "uint256",
          "name": "_bottleSize",
          "type": "uint256"
        },
        {
          "internalType": "string",
          "name": "_sizeUnit",
          "type": "string"
        }
      ],
      "name": "registerBottle",
      "outputs": [],
      "payable": false,
      "stateMutability": "nonpayable",
      "type": "function"
    },
    {
      "constant": true,
      "inputs": [],
      "name": "numberofBottles",
      "outputs": [
        {
          "internalType": "uint256",
          "name": "",
          "type": "uint256"
        }
      ],
      "payable": false,
      "stateMutability": "view",
      "type": "function"
    }
  ],
  "bytecode": "0x608060405234801561001057600080fd5b506107b0806100206000396000f3fe608060405234801561001057600080fd5b50600436106100415760003560e01c80635ccde69a146100465780638b8a2b64146101cc578063d98a0fe3146101ea575b600080fd5b6100726004803603602081101561005c57600080fd5b81019080803590602001909291905050506103dd565b60405180806020018060200185815260200180602001848103845288818151815260200191508051906020019080838360005b838110156100c05780820151818401526020810190506100a5565b50505050905090810190601f1680156100ed5780820380516001836020036101000a031916815260200191505b50848103835287818151815260200191508051906020019080838360005b8381101561012657808201518184015260208101905061010b565b50505050905090810190601f1680156101535780820380516001836020036101000a031916815260200191505b50848103825285818151815260200191508051906020019080838360005b8381101561018c578082015181840152602081019050610171565b50505050905090810190601f1680156101b95780820380516001836020036101000a031916815260200191505b5097505050505050505060405180910390f35b6101d46105e2565b6040518082815260200191505060405180910390f35b6103db6004803603608081101561020057600080fd5b810190808035906020019064010000000081111561021d57600080fd5b82018360208201111561022f57600080fd5b8035906020019184600183028401116401000000008311171561025157600080fd5b91908080601f016020809104026020016040519081016040528093929190818152602001838380828437600081840152601f19601f820116905080830192505050505050509192919290803590602001906401000000008111156102b457600080fd5b8201836020820111156102c657600080fd5b803590602001918460018302840111640100000000831117156102e857600080fd5b91908080601f016020809104026020016040519081016040528093929190818152602001838380828437600081840152601f19601f820116905080830192505050505050509192919290803590602001909291908035906020019064010000000081111561035557600080fd5b82018360208201111561036757600080fd5b8035906020019184600183028401116401000000008311171561038957600080fd5b91908080601f016020809104026020016040519081016040528093929190818152602001838380828437600081840152601f19601f8201169050808301925050505050505091929192905050506105ee565b005b600081815481106103ea57fe5b9060005260206000209060040201600091509050806000018054600181600116156101000203166002900480601f0160208091040260200160405190810160405280929190818152602001828054600181600116156101000203166002900480156104965780601f1061046b57610100808354040283529160200191610496565b820191906000526020600020905b81548152906001019060200180831161047957829003601f168201915b505050505090806001018054600181600116156101000203166002900480601f0160208091040260200160405190810160405280929190818152602001828054600181600116156101000203166002900480156105345780601f1061050957610100808354040283529160200191610534565b820191906000526020600020905b81548152906001019060200180831161051757829003601f168201915b505050505090806002015490806003018054600181600116156101000203166002900480601f0160208091040260200160405190810160405280929190818152602001828054600181600116156101000203166002900480156105d85780601f106105ad576101008083540402835291602001916105d8565b820191906000526020600020905b8154815290600101906020018083116105bb57829003601f168201915b5050505050905084565b60008080549050905090565b6000806040518060800160405280878152602001868152602001858152602001848152509080600181540180825580915050906001820390600052602060002090600402016000909192909190915060008201518160000190805190602001906106599291906106d6565b5060208201518160010190805190602001906106769291906106d6565b5060408201518160020155606082015181600301908051906020019061069d9291906106d6565b5050509050807f75d2ccd6a7b9b0018d80925d02d7e6f130e436bebc7f30e3c18508af02f7605160405160405180910390a25050505050565b828054600181600116156101000203166002900490600052602060002090601f016020900481019282601f1061071757805160ff1916838001178555610745565b82800160010185558215610745579182015b82811115610744578251825591602001919060010190610729565b5b5090506107529190610756565b5090565b61077891905b8082111561077457600081600090555060010161075c565b5090565b9056fea265627a7a72315820ffbf910ff6d3bb6dd64afa8db3e14f51bbd3cc643b57969574e032a79e291c4964736f6c63430005100032",
  "source": "pragma solidity ^0.5.0;\r\n\r\ncontract Plasticbottle{\r\n\r\n    //Creating the reference data for bottle upload\r\n    struct Bottle {\r\n        string qrcode;\r\n        string title;\r\n        uint bottleSize;\r\n        string sizeUnit;\r\n    }\r\n   \r\n   //Bottle event indexed by ID\r\n    event registeredBottleEvent (\r\n        uint indexed _bottleID\r\n    );\r\n\r\n    //Array of all bottles produced by manufacturers\r\n    Bottle[] public BottleArray;\r\n\r\n    //Registering a bottle instance\r\n    function registerBottle(string memory _qrcode, string memory _title,  uint _bottleSize, string memory _sizeUnit) public {\r\n        uint index = BottleArray.push(Bottle(_qrcode, _title,_bottleSize, _sizeUnit));\r\n\r\n        // trigger registeredBottle event\r\n        emit registeredBottleEvent(index);\r\n    }\r\n\r\n\r\n    //Checks the number of bottles in the BottleArray\r\n    function numberofBottles() public view returns (uint){\r\n        return BottleArray.length;\r\n    }\r\n}",
  "sourcePath": "C:\\Users\\CHBRUF001\\Lorax-System\\contracts\\Bottle.sol",
  "compiler": {
    "name": "solc",
    "version": "0.5.16+commit.9c3226ce.Emscripten.clang"
  },
  "schemaVersion": "3.4.3",
  "updatedAt": "2021-09-21T16:35:53.927Z",
  "networkType": "ethereum",
  "devdoc": {
    "methods": {}
  },
  "userdoc": {
    "methods": {}
  }
}