{
  "contractName": "Plasticbottle",
  "abi": [
    {
      "anonymous": false,
      "inputs": [
        {
          "indexed": true,
          "internalType": "uint256",
          "name": "_bottleID",
          "type": "uint256"
        }
      ],
      "name": "registeredBottleEvent",
      "type": "event"
    },
    {
      "constant": true,
      "inputs": [
        {
          "internalType": "uint256",
          "name": "",
          "type": "uint256"
        }
      ],
      "name": "BottleArray",
      "outputs": [
        {
          "internalType": "string",
          "name": "qrCode",
          "type": "string"
        },
        {
          "internalType": "string",
          "name": "title",
          "type": "string"
        },
        {
          "internalType": "uint256",
          "name": "bottleSize",
          "type": "uint256"
        },
        {
          "internalType": "string",
          "name": "sizeUnit",
          "type": "string"
        },
        {
          "internalType": "address",
          "name": "user",
          "type": "address"
        }
      ],
      "payable": false,
      "stateMutability": "view",
      "type": "function"
    },
    {
      "constant": false,
      "inputs": [
        {
          "internalType": "string",
          "name": "_qrCode",
          "type": "string"
        },
        {
          "internalType": "string",
          "name": "_title",
          "type": "string"
        },
        {
          "internalType": "uint256",
          "name": "_bottleSize",
          "type": "uint256"
        },
        {
          "internalType": "string",
          "name": "_sizeUnit",
          "type": "string"
        }
      ],
      "name": "registerBottle",
      "outputs": [
        {
          "internalType": "uint256",
          "name": "",
          "type": "uint256"
        }
      ],
      "payable": false,
      "stateMutability": "nonpayable",
      "type": "function"
    },
    {
      "constant": true,
      "inputs": [],
      "name": "numberofBottles",
      "outputs": [
        {
          "internalType": "uint256",
          "name": "",
          "type": "uint256"
        }
      ],
      "payable": false,
      "stateMutability": "view",
      "type": "function"
    }
  ],
  "bytecode": "0x608060405234801561001057600080fd5b50610893806100206000396000f3fe608060405234801561001057600080fd5b50600436106100415760003560e01c80635ccde69a146100465780638b8a2b64146101ff578063d98a0fe31461021d575b600080fd5b6100726004803603602081101561005c57600080fd5b810190808035906020019092919050505061035e565b604051808060200180602001868152602001806020018573ffffffffffffffffffffffffffffffffffffffff1673ffffffffffffffffffffffffffffffffffffffff168152602001848103845289818151815260200191508051906020019080838360005b838110156100f25780820151818401526020810190506100d7565b50505050905090810190601f16801561011f5780820380516001836020036101000a031916815260200191505b50848103835288818151815260200191508051906020019080838360005b8381101561015857808201518184015260208101905061013d565b50505050905090810190601f1680156101855780820380516001836020036101000a031916815260200191505b50848103825286818151815260200191508051906020019080838360005b838110156101be5780820151818401526020810190506101a3565b50505050905090810190601f1680156101eb5780820380516001836020036101000a031916815260200191505b509850505050505050505060405180910390f35b610207610589565b6040518082815260200191505060405180910390f35b6103486004803603608081101561023357600080fd5b810190808035906020019064010000000081111561025057600080fd5b82018360208201111561026257600080fd5b8035906020019184600183028401116401000000008311171561028457600080fd5b9091929391929390803590602001906401000000008111156102a557600080fd5b8201836020820111156102b757600080fd5b803590602001918460018302840111640100000000831117156102d957600080fd5b9091929391929390803590602001909291908035906020019064010000000081111561030457600080fd5b82018360208201111561031657600080fd5b8035906020019184600183028401116401000000008311171561033857600080fd5b9091929391929390505050610595565b6040518082815260200191505060405180910390f35b6000818154811061036b57fe5b9060005260206000209060050201600091509050806000018054600181600116156101000203166002900480601f0160208091040260200160405190810160405280929190818152602001828054600181600116156101000203166002900480156104175780601f106103ec57610100808354040283529160200191610417565b820191906000526020600020905b8154815290600101906020018083116103fa57829003601f168201915b505050505090806001018054600181600116156101000203166002900480601f0160208091040260200160405190810160405280929190818152602001828054600181600116156101000203166002900480156104b55780601f1061048a576101008083540402835291602001916104b5565b820191906000526020600020905b81548152906001019060200180831161049857829003601f168201915b505050505090806002015490806003018054600181600116156101000203166002900480601f0160208091040260200160405190810160405280929190818152602001828054600181600116156101000203166002900480156105595780601f1061052e57610100808354040283529160200191610559565b820191906000526020600020905b81548152906001019060200180831161053c57829003601f168201915b5050505050908060040160009054906101000a900473ffffffffffffffffffffffffffffffffffffffff16905085565b60008080549050905090565b600080600160006040518060a001604052808c8c8080601f016020809104026020016040519081016040528093929190818152602001838380828437600081840152601f19601f8201169050808301925050505050505081526020018a8a8080601f016020809104026020016040519081016040528093929190818152602001838380828437600081840152601f19601f82011690508083019250505050505050815260200188815260200187878080601f016020809104026020016040519081016040528093929190818152602001838380828437600081840152601f19601f8201169050808301925050505050505081526020013373ffffffffffffffffffffffffffffffffffffffff168152509080600181540180825580915050906001820390600052602060002090600502016000909192909190915060008201518160000190805190602001906106ec9291906107b9565b5060208201518160010190805190602001906107099291906107b9565b506040820151816002015560608201518160030190805190602001906107309291906107b9565b5060808201518160040160006101000a81548173ffffffffffffffffffffffffffffffffffffffff021916908373ffffffffffffffffffffffffffffffffffffffff1602179055505050039050807f75d2ccd6a7b9b0018d80925d02d7e6f130e436bebc7f30e3c18508af02f7605160405160405180910390a280915050979650505050505050565b828054600181600116156101000203166002900490600052602060002090601f016020900481019282601f106107fa57805160ff1916838001178555610828565b82800160010185558215610828579182015b8281111561082757825182559160200191906001019061080c565b5b5090506108359190610839565b5090565b61085b91905b8082111561085757600081600090555060010161083f565b5090565b9056fea265627a7a72315820f527db9ffc7938d9ed8616167ea8072ac4c4269527dc045c6534ee66a306134664736f6c63430005100032",
  "source": "pragma solidity ^0.5.0;\r\n\r\ncontract Plasticbottle{\r\n\r\n    //Creating the reference data for bottle upload\r\n    struct Bottle {\r\n        string qrCode;\r\n        string title;\r\n        uint bottleSize;\r\n        string sizeUnit;\r\n        address user;\r\n    }\r\n   \r\n   //Bottle event indexed by ID\r\n    event registeredBottleEvent (\r\n        uint indexed _bottleID\r\n   );\r\n\r\n    //Array of all bottles produced by manufacturers\r\n    Bottle[] public BottleArray;\r\n\r\n    //Registering a bottle instance\r\n    function registerBottle(string calldata _qrCode, string calldata _title,  uint _bottleSize, string calldata _sizeUnit)\r\n    external returns(uint){\r\n        uint index = BottleArray.push(Bottle(_qrCode, _title,_bottleSize, _sizeUnit, msg.sender))-1;\r\n\r\n        \r\n        // trigger registeredBottle event\r\n       emit registeredBottleEvent(index);\r\n\r\n        return index;\r\n    }\r\n\r\n\r\n    //Checks the number of bottles in the BottleArray\r\n    function numberofBottles() public view returns (uint){\r\n        return BottleArray.length;\r\n    }\r\n}",
  "sourcePath": "C:\\Users\\CHBRUF001\\Lorax-System\\contracts\\Bottle.sol",
  "compiler": {
    "name": "solc",
    "version": "0.5.16+commit.9c3226ce.Emscripten.clang"
  },
  "schemaVersion": "3.4.3",
  "updatedAt": "2021-09-30T15:55:42.993Z",
  "networkType": "ethereum",
  "devdoc": {
    "methods": {}
  },
  "userdoc": {
    "methods": {}
  }
}